:100000000C943E000C9448000C9448000C9448005A
:100010000C9448000C9448000C9448000C94480040
:100020000C9448000C9448000C9448000C94480030
:100030000C9448000C9448000C9448000C94480020
:100040000C9448000C9448000C9448000C94480010
:100050000C9448000C9448000C9448000C94480000
:100060000C9448000C9448000C9448000C944800F0
:100070000C9448000C9448000C94480011241FBEB6
:10008000CFEFD8E0DEBFCDBF0E944A000C946000E5
:100090000C940000569A5E9A2FEF83ED90E3215066
:1000A00080409040E1F700C000005E982FEF83EDA4
:1000B00090E3215080409040E1F700C00000EBCF7A
:0400C000F894FFCFE2
:00000001FF
