:100000000C943E000C9448000C9448000C9448005A
:100010000C9448000C9448000C9448000C94480040
:100020000C9448000C9448000C9448000C94480030
:100030000C9448000C9448000C9448000C944A001E
:100040000C9448000C9448000C9448000C94480010
:100050000C9448000C9448000C9448000C94480000
:100060000C9448000C9448000C9448000C944800F0
:100070000C9448000C9448000C94480011241FBEB6
:10008000CFEFD8E0DEBFCDBF0E9462000C947300BA
:100090000C9400001F920F920FB60F9211248F93B1
:1000A0009F939BB180E489278BB988EF94E290936A
:1000B0008500809384009F918F910F900FBE0F90C9
:1000C0001F901895569AEFE6F0E08081816080835A
:1000D00088EF94E2909385008093840083E080937E
:0A00E00081007894FFCFF894FFCF61
:00000001FF
